{
  "_format": "hh-sol-artifact-1",
  "contractName": "MyEpicNFT",
  "sourceName": "contracts/MyEpicNFT.sol",
  "abi": [
    {
      "inputs": [],
      "stateMutability": "nonpayable",
      "type": "constructor"
    },
    {
      "anonymous": false,
      "inputs": [
        {
          "indexed": true,
          "internalType": "address",
          "name": "owner",
          "type": "address"
        },
        {
          "indexed": true,
          "internalType": "address",
          "name": "approved",
          "type": "address"
        },
        {
          "indexed": true,
          "internalType": "uint256",
          "name": "tokenId",
          "type": "uint256"
        }
      ],
      "name": "Approval",
      "type": "event"
    },
    {
      "anonymous": false,
      "inputs": [
        {
          "indexed": true,
          "internalType": "address",
          "name": "owner",
          "type": "address"
        },
        {
          "indexed": true,
          "internalType": "address",
          "name": "operator",
          "type": "address"
        },
        {
          "indexed": false,
          "internalType": "bool",
          "name": "approved",
          "type": "bool"
        }
      ],
      "name": "ApprovalForAll",
      "type": "event"
    },
    {
      "anonymous": false,
      "inputs": [
        {
          "indexed": false,
          "internalType": "address",
          "name": "sender",
          "type": "address"
        },
        {
          "indexed": false,
          "internalType": "uint256",
          "name": "tokenId",
          "type": "uint256"
        }
      ],
      "name": "NewEpicNFTMinted",
      "type": "event"
    },
    {
      "anonymous": false,
      "inputs": [
        {
          "indexed": true,
          "internalType": "address",
          "name": "from",
          "type": "address"
        },
        {
          "indexed": true,
          "internalType": "address",
          "name": "to",
          "type": "address"
        },
        {
          "indexed": true,
          "internalType": "uint256",
          "name": "tokenId",
          "type": "uint256"
        }
      ],
      "name": "Transfer",
      "type": "event"
    },
    {
      "inputs": [
        {
          "internalType": "address",
          "name": "to",
          "type": "address"
        },
        {
          "internalType": "uint256",
          "name": "tokenId",
          "type": "uint256"
        }
      ],
      "name": "approve",
      "outputs": [],
      "stateMutability": "nonpayable",
      "type": "function"
    },
    {
      "inputs": [
        {
          "internalType": "address",
          "name": "owner",
          "type": "address"
        }
      ],
      "name": "balanceOf",
      "outputs": [
        {
          "internalType": "uint256",
          "name": "",
          "type": "uint256"
        }
      ],
      "stateMutability": "view",
      "type": "function"
    },
    {
      "inputs": [
        {
          "internalType": "uint256",
          "name": "tokenId",
          "type": "uint256"
        }
      ],
      "name": "getApproved",
      "outputs": [
        {
          "internalType": "address",
          "name": "",
          "type": "address"
        }
      ],
      "stateMutability": "view",
      "type": "function"
    },
    {
      "inputs": [
        {
          "internalType": "address",
          "name": "owner",
          "type": "address"
        },
        {
          "internalType": "address",
          "name": "operator",
          "type": "address"
        }
      ],
      "name": "isApprovedForAll",
      "outputs": [
        {
          "internalType": "bool",
          "name": "",
          "type": "bool"
        }
      ],
      "stateMutability": "view",
      "type": "function"
    },
    {
      "inputs": [],
      "name": "makeAnEpicNFT",
      "outputs": [],
      "stateMutability": "nonpayable",
      "type": "function"
    },
    {
      "inputs": [],
      "name": "name",
      "outputs": [
        {
          "internalType": "string",
          "name": "",
          "type": "string"
        }
      ],
      "stateMutability": "view",
      "type": "function"
    },
    {
      "inputs": [
        {
          "internalType": "uint256",
          "name": "tokenId",
          "type": "uint256"
        }
      ],
      "name": "ownerOf",
      "outputs": [
        {
          "internalType": "address",
          "name": "",
          "type": "address"
        }
      ],
      "stateMutability": "view",
      "type": "function"
    },
    {
      "inputs": [
        {
          "internalType": "uint256",
          "name": "tokenId",
          "type": "uint256"
        },
        {
          "internalType": "string",
          "name": "salt",
          "type": "string"
        },
        {
          "internalType": "string[]",
          "name": "words",
          "type": "string[]"
        }
      ],
      "name": "pickRandomWord",
      "outputs": [
        {
          "internalType": "string",
          "name": "",
          "type": "string"
        }
      ],
      "stateMutability": "pure",
      "type": "function"
    },
    {
      "inputs": [
        {
          "internalType": "address",
          "name": "from",
          "type": "address"
        },
        {
          "internalType": "address",
          "name": "to",
          "type": "address"
        },
        {
          "internalType": "uint256",
          "name": "tokenId",
          "type": "uint256"
        }
      ],
      "name": "safeTransferFrom",
      "outputs": [],
      "stateMutability": "nonpayable",
      "type": "function"
    },
    {
      "inputs": [
        {
          "internalType": "address",
          "name": "from",
          "type": "address"
        },
        {
          "internalType": "address",
          "name": "to",
          "type": "address"
        },
        {
          "internalType": "uint256",
          "name": "tokenId",
          "type": "uint256"
        },
        {
          "internalType": "bytes",
          "name": "_data",
          "type": "bytes"
        }
      ],
      "name": "safeTransferFrom",
      "outputs": [],
      "stateMutability": "nonpayable",
      "type": "function"
    },
    {
      "inputs": [
        {
          "internalType": "address",
          "name": "operator",
          "type": "address"
        },
        {
          "internalType": "bool",
          "name": "approved",
          "type": "bool"
        }
      ],
      "name": "setApprovalForAll",
      "outputs": [],
      "stateMutability": "nonpayable",
      "type": "function"
    },
    {
      "inputs": [
        {
          "internalType": "bytes4",
          "name": "interfaceId",
          "type": "bytes4"
        }
      ],
      "name": "supportsInterface",
      "outputs": [
        {
          "internalType": "bool",
          "name": "",
          "type": "bool"
        }
      ],
      "stateMutability": "view",
      "type": "function"
    },
    {
      "inputs": [],
      "name": "symbol",
      "outputs": [
        {
          "internalType": "string",
          "name": "",
          "type": "string"
        }
      ],
      "stateMutability": "view",
      "type": "function"
    },
    {
      "inputs": [
        {
          "internalType": "uint256",
          "name": "tokenId",
          "type": "uint256"
        }
      ],
      "name": "tokenURI",
      "outputs": [
        {
          "internalType": "string",
          "name": "",
          "type": "string"
        }
      ],
      "stateMutability": "view",
      "type": "function"
    },
    {
      "inputs": [
        {
          "internalType": "address",
          "name": "from",
          "type": "address"
        },
        {
          "internalType": "address",
          "name": "to",
          "type": "address"
        },
        {
          "internalType": "uint256",
          "name": "tokenId",
          "type": "uint256"
        }
      ],
      "name": "transferFrom",
      "outputs": [],
      "stateMutability": "nonpayable",
      "type": "function"
    }
  ],
  "bytecode": "0x608060405260405180610160016040528061012f8152602001620042bb61012f91396008908051906020019062000038929190620005cd565b506040518060a001604052806040518060400160405280600681526020017f41637475616c000000000000000000000000000000000000000000000000000081525081526020016040518060400160405280600481526020017f416369640000000000000000000000000000000000000000000000000000000081525081526020016040518060400160405280600381526020017f496c6c000000000000000000000000000000000000000000000000000000000081525081526020016040518060400160405280600881526020017f4d696c697461727900000000000000000000000000000000000000000000000081525081526020016040518060400160405280600581526020017f536861727000000000000000000000000000000000000000000000000000000081525081525060099060056200017b9291906200065e565b506040518060a001604052806040518060400160405280600581526020017f4e6169766500000000000000000000000000000000000000000000000000000081525081526020016040518060400160405280600981526020017f417061746865746963000000000000000000000000000000000000000000000081525081526020016040518060400160405280600781526020017f506172636865640000000000000000000000000000000000000000000000000081525081526020016040518060400160405280600581526020017f546972656400000000000000000000000000000000000000000000000000000081525081526020016040518060400160405280600481526020017f4875727400000000000000000000000000000000000000000000000000000000815250815250600a906005620002be9291906200065e565b506040518060a001604052806040518060400160405280600781526020017f4f7574636f6d650000000000000000000000000000000000000000000000000081525081526020016040518060400160405280600881526020017f456d706c6f79656500000000000000000000000000000000000000000000000081525081526020016040518060400160405280600781526020017f536f63696574790000000000000000000000000000000000000000000000000081525081526020016040518060400160405280600a81526020017f476f7665726e6d656e740000000000000000000000000000000000000000000081525081526020016040518060400160405280600681526020017f4f66666963650000000000000000000000000000000000000000000000000000815250815250600b906005620004019291906200065e565b503480156200040f57600080fd5b506040518060400160405280600981526020017f5371756172654e465400000000000000000000000000000000000000000000008152506040518060400160405280600681526020017f5351554152450000000000000000000000000000000000000000000000000000815250816000908051906020019062000494929190620005cd565b508060019080519060200190620004ad929190620005cd565b505050620004fb6040518060400160405280601d81526020017f54686973206973206d79204e465420636f6e74726163742e20596569210000008152506200050160201b620010981760201c565b6200087f565b620005a18160405160240162000518919062000793565b6040516020818303038152906040527f41304fac000000000000000000000000000000000000000000000000000000007bffffffffffffffffffffffffffffffffffffffffffffffffffffffff19166020820180517bffffffffffffffffffffffffffffffffffffffffffffffffffffffff8381831617835250505050620005a460201b60201c565b50565b60008151905060006a636f6e736f6c652e6c6f679050602083016000808483855afa5050505050565b828054620005db9062000809565b90600052602060002090601f016020900481019282620005ff57600085556200064b565b82601f106200061a57805160ff19168380011785556200064b565b828001600101855582156200064b579182015b828111156200064a5782518255916020019190600101906200062d565b5b5090506200065a9190620006c5565b5090565b828054828255906000526020600020908101928215620006b2579160200282015b82811115620006b1578251829080519060200190620006a0929190620005cd565b50916020019190600101906200067f565b5b509050620006c19190620006e4565b5090565b5b80821115620006e0576000816000905550600101620006c6565b5090565b5b80821115620007085760008181620006fe91906200070c565b50600101620006e5565b5090565b5080546200071a9062000809565b6000825580601f106200072e57506200074f565b601f0160209004906000526020600020908101906200074e9190620006c5565b5b50565b60006200075f82620007b7565b6200076b8185620007c2565b93506200077d818560208601620007d3565b62000788816200086e565b840191505092915050565b60006020820190508181036000830152620007af818462000752565b905092915050565b600081519050919050565b600082825260208201905092915050565b60005b83811015620007f3578082015181840152602081019050620007d6565b8381111562000803576000848401525b50505050565b600060028204905060018216806200082257607f821691505b602082108114156200083957620008386200083f565b5b50919050565b7f4e487b7100000000000000000000000000000000000000000000000000000000600052602260045260246000fd5b6000601f19601f8301169050919050565b613a2c806200088f6000396000f3fe608060405234801561001057600080fd5b50600436106100f55760003560e01c80636352211e11610097578063b88d4fde11610066578063b88d4fde14610296578063c87b56dd146102b2578063de9d132f146102e2578063e985e9c5146102ec576100f5565b80636352211e146101fc57806370a082311461022c57806395d89b411461025c578063a22cb4651461027a576100f5565b8063095ea7b3116100d3578063095ea7b31461017857806323b872dd1461019457806342842e0e146101b05780634c549d2b146101cc576100f5565b806301ffc9a7146100fa57806306fdde031461012a578063081812fc14610148575b600080fd5b610114600480360381019061010f91906125a8565b61031c565b6040516101219190612c62565b60405180910390f35b6101326103fe565b60405161013f9190612c7d565b60405180910390f35b610162600480360381019061015d91906125fa565b610490565b60405161016f9190612bd2565b60405180910390f35b610192600480360381019061018d919061256c565b610515565b005b6101ae60048036038101906101a99190612466565b61062d565b005b6101ca60048036038101906101c59190612466565b61068d565b005b6101e660048036038101906101e19190612623565b6106ad565b6040516101f39190612c7d565b60405180910390f35b610216600480360381019061021191906125fa565b61073f565b6040516102239190612bd2565b60405180910390f35b61024660048036038101906102419190612401565b6107f1565b6040516102539190612edd565b60405180910390f35b6102646108a9565b6040516102719190612c7d565b60405180910390f35b610294600480360381019061028f9190612530565b61093b565b005b6102b060048036038101906102ab91906124b5565b610951565b005b6102cc60048036038101906102c791906125fa565b6109b3565b6040516102d99190612c7d565b60405180910390f35b6102ea610b05565b005b6103066004803603810190610301919061242a565b611004565b6040516103139190612c62565b60405180910390f35b60007f80ac58cd000000000000000000000000000000000000000000000000000000007bffffffffffffffffffffffffffffffffffffffffffffffffffffffff1916827bffffffffffffffffffffffffffffffffffffffffffffffffffffffff191614806103e757507f5b5e139f000000000000000000000000000000000000000000000000000000007bffffffffffffffffffffffffffffffffffffffffffffffffffffffff1916827bffffffffffffffffffffffffffffffffffffffffffffffffffffffff1916145b806103f757506103f682611131565b5b9050919050565b60606000805461040d906131ce565b80601f0160208091040260200160405190810160405280929190818152602001828054610439906131ce565b80156104865780601f1061045b57610100808354040283529160200191610486565b820191906000526020600020905b81548152906001019060200180831161046957829003601f168201915b5050505050905090565b600061049b8261119b565b6104da576040517f08c379a00000000000000000000000000000000000000000000000000000000081526004016104d190612e5d565b60405180910390fd5b6004600083815260200190815260200160002060009054906101000a900473ffffffffffffffffffffffffffffffffffffffff169050919050565b60006105208261073f565b90508073ffffffffffffffffffffffffffffffffffffffff168373ffffffffffffffffffffffffffffffffffffffff161415610591576040517f08c379a000000000000000000000000000000000000000000000000000000000815260040161058890612e9d565b60405180910390fd5b8073ffffffffffffffffffffffffffffffffffffffff166105b0611207565b73ffffffffffffffffffffffffffffffffffffffff1614806105df57506105de816105d9611207565b611004565b5b61061e576040517f08c379a000000000000000000000000000000000000000000000000000000000815260040161061590612d9d565b60405180910390fd5b610628838361120f565b505050565b61063e610638611207565b826112c8565b61067d576040517f08c379a000000000000000000000000000000000000000000000000000000000815260040161067490612ebd565b60405180910390fd5b6106888383836113a6565b505050565b6106a883838360405180602001604052806000815250610951565b505050565b606060006106e3846106be8761160d565b6040516020016106cf929190612ae7565b6040516020818303038152906040526117ba565b90508251816106f2919061327a565b905082818151811061072d577f4e487b7100000000000000000000000000000000000000000000000000000000600052603260045260246000fd5b60200260200101519150509392505050565b6000806002600084815260200190815260200160002060009054906101000a900473ffffffffffffffffffffffffffffffffffffffff169050600073ffffffffffffffffffffffffffffffffffffffff168173ffffffffffffffffffffffffffffffffffffffff1614156107e8576040517f08c379a00000000000000000000000000000000000000000000000000000000081526004016107df90612ddd565b60405180910390fd5b80915050919050565b60008073ffffffffffffffffffffffffffffffffffffffff168273ffffffffffffffffffffffffffffffffffffffff161415610862576040517f08c379a000000000000000000000000000000000000000000000000000000000815260040161085990612dbd565b60405180910390fd5b600360008373ffffffffffffffffffffffffffffffffffffffff1673ffffffffffffffffffffffffffffffffffffffff168152602001908152602001600020549050919050565b6060600180546108b8906131ce565b80601f01602080910402602001604051908101604052809291908181526020018280546108e4906131ce565b80156109315780601f1061090657610100808354040283529160200191610931565b820191906000526020600020905b81548152906001019060200180831161091457829003601f168201915b5050505050905090565b61094d610946611207565b83836117ed565b5050565b61096261095c611207565b836112c8565b6109a1576040517f08c379a000000000000000000000000000000000000000000000000000000000815260040161099890612ebd565b60405180910390fd5b6109ad8484848461195a565b50505050565b60606109be8261119b565b6109fd576040517f08c379a00000000000000000000000000000000000000000000000000000000081526004016109f490612e3d565b60405180910390fd5b6000600660008481526020019081526020016000208054610a1d906131ce565b80601f0160208091040260200160405190810160405280929190818152602001828054610a49906131ce565b8015610a965780601f10610a6b57610100808354040283529160200191610a96565b820191906000526020600020905b815481529060010190602001808311610a7957829003601f168201915b505050505090506000610aa76119b6565b9050600081511415610abd578192505050610b00565b600082511115610af2578082604051602001610ada929190612ae7565b60405160208183030381529060405292505050610b00565b610afb846119cd565b925050505b919050565b6000610b116007611a74565b90506000610c26826040518060400160405280600a81526020017f46495253545f574f5244000000000000000000000000000000000000000000008152506009805480602002602001604051908101604052809291908181526020016000905b82821015610c1d578382906000526020600020018054610b90906131ce565b80601f0160208091040260200160405190810160405280929190818152602001828054610bbc906131ce565b8015610c095780601f10610bde57610100808354040283529160200191610c09565b820191906000526020600020905b815481529060010190602001808311610bec57829003601f168201915b505050505081526020019060010190610b71565b505050506106ad565b90506000610d3b836040518060400160405280600b81526020017f5345434f4e445f574f5244000000000000000000000000000000000000000000815250600a805480602002602001604051908101604052809291908181526020016000905b82821015610d32578382906000526020600020018054610ca5906131ce565b80601f0160208091040260200160405190810160405280929190818152602001828054610cd1906131ce565b8015610d1e5780601f10610cf357610100808354040283529160200191610d1e565b820191906000526020600020905b815481529060010190602001808311610d0157829003601f168201915b505050505081526020019060010190610c86565b505050506106ad565b90506000610e50846040518060400160405280600a81526020017f54484952445f574f524400000000000000000000000000000000000000000000815250600b805480602002602001604051908101604052809291908181526020016000905b82821015610e47578382906000526020600020018054610dba906131ce565b80601f0160208091040260200160405190810160405280929190818152602001828054610de6906131ce565b8015610e335780601f10610e0857610100808354040283529160200191610e33565b820191906000526020600020905b815481529060010190602001808311610e1657829003601f168201915b505050505081526020019060010190610d9b565b505050506106ad565b90506000838383604051602001610e6993929190612b0b565b60405160208183030381529060405290506000600882604051602001610e90929190612b3c565b60405160208183030381529060405290506000610ed583610eb084611a82565b604051602001610ec1929190612b6b565b604051602081830303815290604052611a82565b9050600081604051602001610eea9190612bb0565b6040516020818303038152906040529050610f396040518060400160405280601581526020017f0a2d2d2d2d2d2d2d2d2d2d2d2d2d2d2d2d2d2d2d2d0000000000000000000000815250611098565b610f4281611098565b610f806040518060400160405280601581526020017f2d2d2d2d2d2d2d2d2d2d2d2d2d2d2d2d2d2d2d2d0a0000000000000000000000815250611098565b610f8a3389611c0c565b610f948882611c2a565b610fb7604051806060016040528060258152602001613992602591398933611c9e565b610fc16007611d3d565b7febb98688741ffa4c7589bf325de30cf7becb63de567842e1ccdb6cb949fdc82c3389604051610ff2929190612c39565b60405180910390a15050505050505050565b6000600560008473ffffffffffffffffffffffffffffffffffffffff1673ffffffffffffffffffffffffffffffffffffffff16815260200190815260200160002060008373ffffffffffffffffffffffffffffffffffffffff1673ffffffffffffffffffffffffffffffffffffffff16815260200190815260200160002060009054906101000a900460ff16905092915050565b61112e816040516024016110ac9190612c7d565b6040516020818303038152906040527f41304fac000000000000000000000000000000000000000000000000000000007bffffffffffffffffffffffffffffffffffffffffffffffffffffffff19166020820180517bffffffffffffffffffffffffffffffffffffffffffffffffffffffff8381831617835250505050611d53565b50565b60007f01ffc9a7000000000000000000000000000000000000000000000000000000007bffffffffffffffffffffffffffffffffffffffffffffffffffffffff1916827bffffffffffffffffffffffffffffffffffffffffffffffffffffffff1916149050919050565b60008073ffffffffffffffffffffffffffffffffffffffff166002600084815260200190815260200160002060009054906101000a900473ffffffffffffffffffffffffffffffffffffffff1673ffffffffffffffffffffffffffffffffffffffff1614159050919050565b600033905090565b816004600083815260200190815260200160002060006101000a81548173ffffffffffffffffffffffffffffffffffffffff021916908373ffffffffffffffffffffffffffffffffffffffff160217905550808273ffffffffffffffffffffffffffffffffffffffff166112828361073f565b73ffffffffffffffffffffffffffffffffffffffff167f8c5be1e5ebec7d5bd14f71427d1e84f3dd0314c0f7b2291e5b200ac8c7c3b92560405160405180910390a45050565b60006112d38261119b565b611312576040517f08c379a000000000000000000000000000000000000000000000000000000000815260040161130990612d7d565b60405180910390fd5b600061131d8361073f565b90508073ffffffffffffffffffffffffffffffffffffffff168473ffffffffffffffffffffffffffffffffffffffff16148061138c57508373ffffffffffffffffffffffffffffffffffffffff1661137484610490565b73ffffffffffffffffffffffffffffffffffffffff16145b8061139d575061139c8185611004565b5b91505092915050565b8273ffffffffffffffffffffffffffffffffffffffff166113c68261073f565b73ffffffffffffffffffffffffffffffffffffffff161461141c576040517f08c379a000000000000000000000000000000000000000000000000000000000815260040161141390612cfd565b60405180910390fd5b600073ffffffffffffffffffffffffffffffffffffffff168273ffffffffffffffffffffffffffffffffffffffff16141561148c576040517f08c379a000000000000000000000000000000000000000000000000000000000815260040161148390612d3d565b60405180910390fd5b611497838383611d7c565b6114a260008261120f565b6001600360008573ffffffffffffffffffffffffffffffffffffffff1673ffffffffffffffffffffffffffffffffffffffff16815260200190815260200160002060008282546114f291906130e4565b925050819055506001600360008473ffffffffffffffffffffffffffffffffffffffff1673ffffffffffffffffffffffffffffffffffffffff16815260200190815260200160002060008282546115499190613003565b92505081905550816002600083815260200190815260200160002060006101000a81548173ffffffffffffffffffffffffffffffffffffffff021916908373ffffffffffffffffffffffffffffffffffffffff160217905550808273ffffffffffffffffffffffffffffffffffffffff168473ffffffffffffffffffffffffffffffffffffffff167fddf252ad1be2c89b69c2b068fc378daa952ba7f163c4a11628f55a4df523b3ef60405160405180910390a4611608838383611d81565b505050565b60606000821415611655576040518060400160405280600181526020017f300000000000000000000000000000000000000000000000000000000000000081525090506117b5565b600082905060005b6000821461168757808061167090613231565b915050600a826116809190613059565b915061165d565b60008167ffffffffffffffff8111156116c9577f4e487b7100000000000000000000000000000000000000000000000000000000600052604160045260246000fd5b6040519080825280601f01601f1916602001820160405280156116fb5781602001600182028036833780820191505090505b5090505b600085146117ae5760018261171491906130e4565b9150600a85611723919061327a565b603061172f9190613003565b60f81b81838151811061176b577f4e487b7100000000000000000000000000000000000000000000000000000000600052603260045260246000fd5b60200101907effffffffffffffffffffffffffffffffffffffffffffffffffffffffffffff1916908160001a905350600a856117a79190613059565b94506116ff565b8093505050505b919050565b6000816040516020016117cd9190612ad0565b6040516020818303038152906040528051906020012060001c9050919050565b8173ffffffffffffffffffffffffffffffffffffffff168373ffffffffffffffffffffffffffffffffffffffff16141561185c576040517f08c379a000000000000000000000000000000000000000000000000000000000815260040161185390612d5d565b60405180910390fd5b80600560008573ffffffffffffffffffffffffffffffffffffffff1673ffffffffffffffffffffffffffffffffffffffff16815260200190815260200160002060008473ffffffffffffffffffffffffffffffffffffffff1673ffffffffffffffffffffffffffffffffffffffff16815260200190815260200160002060006101000a81548160ff0219169083151502179055508173ffffffffffffffffffffffffffffffffffffffff168373ffffffffffffffffffffffffffffffffffffffff167f17307eab39ab6107e8899845ad3d59bd9653f200f220920489ca2b5937696c318360405161194d9190612c62565b60405180910390a3505050565b6119658484846113a6565b61197184848484611d86565b6119b0576040517f08c379a00000000000000000000000000000000000000000000000000000000081526004016119a790612cdd565b60405180910390fd5b50505050565b606060405180602001604052806000815250905090565b60606119d88261119b565b611a17576040517f08c379a0000000000000000000000000000000000000000000000000000000008152600401611a0e90612e7d565b60405180910390fd5b6000611a216119b6565b90506000815111611a415760405180602001604052806000815250611a6c565b80611a4b8461160d565b604051602001611a5c929190612ae7565b6040516020818303038152906040525b915050919050565b600081600001549050919050565b6060600082511415611aa557604051806020016040528060008152509050611c07565b60006040518060600160405280604081526020016139b76040913990506000600360028551611ad49190613003565b611ade9190613059565b6004611aea919061308a565b67ffffffffffffffff811115611b29577f4e487b7100000000000000000000000000000000000000000000000000000000600052604160045260246000fd5b6040519080825280601f01601f191660200182016040528015611b5b5781602001600182028036833780820191505090505b509050600182016020820185865187015b80821015611bc7576003820191508151603f8160121c168501518453600184019350603f81600c1c168501518453600184019350603f8160061c168501518453600184019350603f8116850151845360018401935050611b6c565b5050600386510660018114611be35760028114611bf657611bfe565b603d6001830353603d6002830353611bfe565b603d60018303535b50505080925050505b919050565b611c26828260405180602001604052806000815250611f1d565b5050565b611c338261119b565b611c72576040517f08c379a0000000000000000000000000000000000000000000000000000000008152600401611c6990612dfd565b60405180910390fd5b80600660008481526020019081526020016000209080519060200190611c99929190612175565b505050565b611d38838383604051602401611cb693929190612c9f565b6040516020818303038152906040527fe3849f79000000000000000000000000000000000000000000000000000000007bffffffffffffffffffffffffffffffffffffffffffffffffffffffff19166020820180517bffffffffffffffffffffffffffffffffffffffffffffffffffffffff8381831617835250505050611d53565b505050565b6001816000016000828254019250508190555050565b60008151905060006a636f6e736f6c652e6c6f679050602083016000808483855afa5050505050565b505050565b505050565b6000611da78473ffffffffffffffffffffffffffffffffffffffff16611f78565b15611f10578373ffffffffffffffffffffffffffffffffffffffff1663150b7a02611dd0611207565b8786866040518563ffffffff1660e01b8152600401611df29493929190612bed565b602060405180830381600087803b158015611e0c57600080fd5b505af1925050508015611e3d57506040513d601f19601f82011682018060405250810190611e3a91906125d1565b60015b611ec0573d8060008114611e6d576040519150601f19603f3d011682016040523d82523d6000602084013e611e72565b606091505b50600081511415611eb8576040517f08c379a0000000000000000000000000000000000000000000000000000000008152600401611eaf90612cdd565b60405180910390fd5b805181602001fd5b63150b7a0260e01b7bffffffffffffffffffffffffffffffffffffffffffffffffffffffff1916817bffffffffffffffffffffffffffffffffffffffffffffffffffffffff191614915050611f15565b600190505b949350505050565b611f278383611f9b565b611f346000848484611d86565b611f73576040517f08c379a0000000000000000000000000000000000000000000000000000000008152600401611f6a90612cdd565b60405180910390fd5b505050565b6000808273ffffffffffffffffffffffffffffffffffffffff163b119050919050565b600073ffffffffffffffffffffffffffffffffffffffff168273ffffffffffffffffffffffffffffffffffffffff16141561200b576040517f08c379a000000000000000000000000000000000000000000000000000000000815260040161200290612e1d565b60405180910390fd5b6120148161119b565b15612054576040517f08c379a000000000000000000000000000000000000000000000000000000000815260040161204b90612d1d565b60405180910390fd5b61206060008383611d7c565b6001600360008473ffffffffffffffffffffffffffffffffffffffff1673ffffffffffffffffffffffffffffffffffffffff16815260200190815260200160002060008282546120b09190613003565b92505081905550816002600083815260200190815260200160002060006101000a81548173ffffffffffffffffffffffffffffffffffffffff021916908373ffffffffffffffffffffffffffffffffffffffff160217905550808273ffffffffffffffffffffffffffffffffffffffff16600073ffffffffffffffffffffffffffffffffffffffff167fddf252ad1be2c89b69c2b068fc378daa952ba7f163c4a11628f55a4df523b3ef60405160405180910390a461217160008383611d81565b5050565b828054612181906131ce565b90600052602060002090601f0160209004810192826121a357600085556121ea565b82601f106121bc57805160ff19168380011785556121ea565b828001600101855582156121ea579182015b828111156121e95782518255916020019190600101906121ce565b5b5090506121f791906121fb565b5090565b5b808211156122145760008160009055506001016121fc565b5090565b600061222b61222684612f1d565b612ef8565b9050808382526020820190508285602086028201111561224a57600080fd5b60005b8581101561229457813567ffffffffffffffff81111561226c57600080fd5b80860161227989826123c2565b8552602085019450602084019350505060018101905061224d565b5050509392505050565b60006122b16122ac84612f49565b612ef8565b9050828152602081018484840111156122c957600080fd5b6122d484828561318c565b509392505050565b60006122ef6122ea84612f7a565b612ef8565b90508281526020810184848401111561230757600080fd5b61231284828561318c565b509392505050565b60008135905061232981613935565b92915050565b600082601f83011261234057600080fd5b8135612350848260208601612218565b91505092915050565b6000813590506123688161394c565b92915050565b60008135905061237d81613963565b92915050565b60008151905061239281613963565b92915050565b600082601f8301126123a957600080fd5b81356123b984826020860161229e565b91505092915050565b600082601f8301126123d357600080fd5b81356123e38482602086016122dc565b91505092915050565b6000813590506123fb8161397a565b92915050565b60006020828403121561241357600080fd5b60006124218482850161231a565b91505092915050565b6000806040838503121561243d57600080fd5b600061244b8582860161231a565b925050602061245c8582860161231a565b9150509250929050565b60008060006060848603121561247b57600080fd5b60006124898682870161231a565b935050602061249a8682870161231a565b92505060406124ab868287016123ec565b9150509250925092565b600080600080608085870312156124cb57600080fd5b60006124d98782880161231a565b94505060206124ea8782880161231a565b93505060406124fb878288016123ec565b925050606085013567ffffffffffffffff81111561251857600080fd5b61252487828801612398565b91505092959194509250565b6000806040838503121561254357600080fd5b60006125518582860161231a565b925050602061256285828601612359565b9150509250929050565b6000806040838503121561257f57600080fd5b600061258d8582860161231a565b925050602061259e858286016123ec565b9150509250929050565b6000602082840312156125ba57600080fd5b60006125c88482850161236e565b91505092915050565b6000602082840312156125e357600080fd5b60006125f184828501612383565b91505092915050565b60006020828403121561260c57600080fd5b600061261a848285016123ec565b91505092915050565b60008060006060848603121561263857600080fd5b6000612646868287016123ec565b935050602084013567ffffffffffffffff81111561266357600080fd5b61266f868287016123c2565b925050604084013567ffffffffffffffff81111561268c57600080fd5b6126988682870161232f565b9150509250925092565b6126ab81613118565b82525050565b6126ba8161312a565b82525050565b60006126cb82612fc0565b6126d58185612fd6565b93506126e581856020860161319b565b6126ee81613367565b840191505092915050565b600061270482612fcb565b61270e8185612fe7565b935061271e81856020860161319b565b61272781613367565b840191505092915050565b600061273d82612fcb565b6127478185612ff8565b935061275781856020860161319b565b80840191505092915050565b60008154612770816131ce565b61277a8186612ff8565b9450600182166000811461279557600181146127a6576127d9565b60ff198316865281860193506127d9565b6127af85612fab565b60005b838110156127d1578154818901526001820191506020810190506127b2565b838801955050505b50505092915050565b60006127ef603283612fe7565b91506127fa82613378565b604082019050919050565b6000612812602583612fe7565b915061281d826133c7565b604082019050919050565b6000612835601c83612fe7565b915061284082613416565b602082019050919050565b6000612858602483612fe7565b91506128638261343f565b604082019050919050565b600061287b601983612fe7565b91506128868261348e565b602082019050919050565b600061289e606383612ff8565b91506128a9826134b7565b606382019050919050565b60006128c1602c83612fe7565b91506128cc82613552565b604082019050919050565b60006128e4600d83612ff8565b91506128ef826135a1565b600d82019050919050565b6000612907603883612fe7565b9150612912826135ca565b604082019050919050565b600061292a602a83612fe7565b915061293582613619565b604082019050919050565b600061294d602983612fe7565b915061295882613668565b604082019050919050565b6000612970602e83612fe7565b915061297b826136b7565b604082019050919050565b6000612993600283612ff8565b915061299e82613706565b600282019050919050565b60006129b6602083612fe7565b91506129c18261372f565b602082019050919050565b60006129d9603183612fe7565b91506129e482613758565b604082019050919050565b60006129fc602c83612fe7565b9150612a07826137a7565b604082019050919050565b6000612a1f602f83612fe7565b9150612a2a826137f6565b604082019050919050565b6000612a42600a83612ff8565b9150612a4d82613845565b600a82019050919050565b6000612a65602183612fe7565b9150612a708261386e565b604082019050919050565b6000612a88601d83612ff8565b9150612a93826138bd565b601d82019050919050565b6000612aab603183612fe7565b9150612ab6826138e6565b604082019050919050565b612aca81613182565b82525050565b6000612adc8284612732565b915081905092915050565b6000612af38285612732565b9150612aff8284612732565b91508190509392505050565b6000612b178286612732565b9150612b238285612732565b9150612b2f8284612732565b9150819050949350505050565b6000612b488285612763565b9150612b548284612732565b9150612b5f826128d7565b91508190509392505050565b6000612b7682612a35565b9150612b828285612732565b9150612b8d82612891565b9150612b998284612732565b9150612ba482612986565b91508190509392505050565b6000612bbb82612a7b565b9150612bc78284612732565b915081905092915050565b6000602082019050612be760008301846126a2565b92915050565b6000608082019050612c0260008301876126a2565b612c0f60208301866126a2565b612c1c6040830185612ac1565b8181036060830152612c2e81846126c0565b905095945050505050565b6000604082019050612c4e60008301856126a2565b612c5b6020830184612ac1565b9392505050565b6000602082019050612c7760008301846126b1565b92915050565b60006020820190508181036000830152612c9781846126f9565b905092915050565b60006060820190508181036000830152612cb981866126f9565b9050612cc86020830185612ac1565b612cd560408301846126a2565b949350505050565b60006020820190508181036000830152612cf6816127e2565b9050919050565b60006020820190508181036000830152612d1681612805565b9050919050565b60006020820190508181036000830152612d3681612828565b9050919050565b60006020820190508181036000830152612d568161284b565b9050919050565b60006020820190508181036000830152612d768161286e565b9050919050565b60006020820190508181036000830152612d96816128b4565b9050919050565b60006020820190508181036000830152612db6816128fa565b9050919050565b60006020820190508181036000830152612dd68161291d565b9050919050565b60006020820190508181036000830152612df681612940565b9050919050565b60006020820190508181036000830152612e1681612963565b9050919050565b60006020820190508181036000830152612e36816129a9565b9050919050565b60006020820190508181036000830152612e56816129cc565b9050919050565b60006020820190508181036000830152612e76816129ef565b9050919050565b60006020820190508181036000830152612e9681612a12565b9050919050565b60006020820190508181036000830152612eb681612a58565b9050919050565b60006020820190508181036000830152612ed681612a9e565b9050919050565b6000602082019050612ef26000830184612ac1565b92915050565b6000612f02612f13565b9050612f0e8282613200565b919050565b6000604051905090565b600067ffffffffffffffff821115612f3857612f37613338565b5b602082029050602081019050919050565b600067ffffffffffffffff821115612f6457612f63613338565b5b612f6d82613367565b9050602081019050919050565b600067ffffffffffffffff821115612f9557612f94613338565b5b612f9e82613367565b9050602081019050919050565b60008190508160005260206000209050919050565b600081519050919050565b600081519050919050565b600082825260208201905092915050565b600082825260208201905092915050565b600081905092915050565b600061300e82613182565b915061301983613182565b9250827fffffffffffffffffffffffffffffffffffffffffffffffffffffffffffffffff0382111561304e5761304d6132ab565b5b828201905092915050565b600061306482613182565b915061306f83613182565b92508261307f5761307e6132da565b5b828204905092915050565b600061309582613182565b91506130a083613182565b9250817fffffffffffffffffffffffffffffffffffffffffffffffffffffffffffffffff04831182151516156130d9576130d86132ab565b5b828202905092915050565b60006130ef82613182565b91506130fa83613182565b92508282101561310d5761310c6132ab565b5b828203905092915050565b600061312382613162565b9050919050565b60008115159050919050565b60007fffffffff0000000000000000000000000000000000000000000000000000000082169050919050565b600073ffffffffffffffffffffffffffffffffffffffff82169050919050565b6000819050919050565b82818337600083830152505050565b60005b838110156131b957808201518184015260208101905061319e565b838111156131c8576000848401525b50505050565b600060028204905060018216806131e657607f821691505b602082108114156131fa576131f9613309565b5b50919050565b61320982613367565b810181811067ffffffffffffffff8211171561322857613227613338565b5b80604052505050565b600061323c82613182565b91507fffffffffffffffffffffffffffffffffffffffffffffffffffffffffffffffff82141561326f5761326e6132ab565b5b600182019050919050565b600061328582613182565b915061329083613182565b9250826132a05761329f6132da565b5b828206905092915050565b7f4e487b7100000000000000000000000000000000000000000000000000000000600052601160045260246000fd5b7f4e487b7100000000000000000000000000000000000000000000000000000000600052601260045260246000fd5b7f4e487b7100000000000000000000000000000000000000000000000000000000600052602260045260246000fd5b7f4e487b7100000000000000000000000000000000000000000000000000000000600052604160045260246000fd5b6000601f19601f8301169050919050565b7f4552433732313a207472616e7366657220746f206e6f6e20455243373231526560008201527f63656976657220696d706c656d656e7465720000000000000000000000000000602082015250565b7f4552433732313a207472616e736665722066726f6d20696e636f72726563742060008201527f6f776e6572000000000000000000000000000000000000000000000000000000602082015250565b7f4552433732313a20746f6b656e20616c7265616479206d696e74656400000000600082015250565b7f4552433732313a207472616e7366657220746f20746865207a65726f2061646460008201527f7265737300000000000000000000000000000000000000000000000000000000602082015250565b7f4552433732313a20617070726f766520746f2063616c6c657200000000000000600082015250565b7f222c20226465736372697074696f6e223a20224120686967686c79206163636c60008201527f61696d656420636f6c6c656374696f6e206f6620737175617265732e222c202260208201527f696d616765223a2022646174613a696d6167652f7376672b786d6c3b6261736560408201527f36342c0000000000000000000000000000000000000000000000000000000000606082015250565b7f4552433732313a206f70657261746f7220717565727920666f72206e6f6e657860008201527f697374656e7420746f6b656e0000000000000000000000000000000000000000602082015250565b7f3c2f746578743e3c2f7376673e00000000000000000000000000000000000000600082015250565b7f4552433732313a20617070726f76652063616c6c6572206973206e6f74206f7760008201527f6e6572206e6f7220617070726f76656420666f7220616c6c0000000000000000602082015250565b7f4552433732313a2062616c616e636520717565727920666f7220746865207a6560008201527f726f206164647265737300000000000000000000000000000000000000000000602082015250565b7f4552433732313a206f776e657220717565727920666f72206e6f6e657869737460008201527f656e7420746f6b656e0000000000000000000000000000000000000000000000602082015250565b7f45524337323155524953746f726167653a2055524920736574206f66206e6f6e60008201527f6578697374656e7420746f6b656e000000000000000000000000000000000000602082015250565b7f227d000000000000000000000000000000000000000000000000000000000000600082015250565b7f4552433732313a206d696e7420746f20746865207a65726f2061646472657373600082015250565b7f45524337323155524953746f726167653a2055524920717565727920666f722060008201527f6e6f6e6578697374656e7420746f6b656e000000000000000000000000000000602082015250565b7f4552433732313a20617070726f76656420717565727920666f72206e6f6e657860008201527f697374656e7420746f6b656e0000000000000000000000000000000000000000602082015250565b7f4552433732314d657461646174613a2055524920717565727920666f72206e6f60008201527f6e6578697374656e7420746f6b656e0000000000000000000000000000000000602082015250565b7f7b226e616d65223a202200000000000000000000000000000000000000000000600082015250565b7f4552433732313a20617070726f76616c20746f2063757272656e74206f776e6560008201527f7200000000000000000000000000000000000000000000000000000000000000602082015250565b7f646174613a6170706c69636174696f6e2f6a736f6e3b6261736536342c000000600082015250565b7f4552433732313a207472616e736665722063616c6c6572206973206e6f74206f60008201527f776e6572206e6f7220617070726f766564000000000000000000000000000000602082015250565b61393e81613118565b811461394957600080fd5b50565b6139558161312a565b811461396057600080fd5b50565b61396c81613136565b811461397757600080fd5b50565b61398381613182565b811461398e57600080fd5b5056fe416e204e465420772f20494420257320686173206265656e206d696e74656420746f2025734142434445464748494a4b4c4d4e4f505152535455565758595a6162636465666768696a6b6c6d6e6f707172737475767778797a303132333435363738392b2fa26469706673582212204ae0d4abbd25233f3913f92c54d11c2f223571b2b020fa15433ddceeb186010364736f6c634300080400333c73766720786d6c6e733d27687474703a2f2f7777772e77332e6f72672f323030302f73766727207072657365727665417370656374526174696f3d27784d696e594d696e206d656574272076696577426f783d273020302033353020333530273e3c7374796c653e2e62617365207b2066696c6c3a2077686974653b20666f6e742d66616d696c793a2073657269663b20666f6e742d73697a653a20323470783b207d3c2f7374796c653e3c726563742077696474683d273130302527206865696768743d2731303025272066696c6c3d27626c61636b27202f3e3c7465787420783d273530252720793d273530252720636c6173733d27626173652720646f6d696e616e742d626173656c696e653d276d6964646c652720746578742d616e63686f723d276d6964646c65273e",
  "linkReferences": {},
  "deployedLinkReferences": {}
}