{
  "_format": "hh-sol-artifact-1",
  "contractName": "MyEpicNFT",
  "sourceName": "contracts/MyEpicNFT.sol",
  "abi": [
    {
      "inputs": [],
      "stateMutability": "nonpayable",
      "type": "constructor"
    },
    {
      "anonymous": false,
      "inputs": [
        {
          "indexed": true,
          "internalType": "address",
          "name": "owner",
          "type": "address"
        },
        {
          "indexed": true,
          "internalType": "address",
          "name": "approved",
          "type": "address"
        },
        {
          "indexed": true,
          "internalType": "uint256",
          "name": "tokenId",
          "type": "uint256"
        }
      ],
      "name": "Approval",
      "type": "event"
    },
    {
      "anonymous": false,
      "inputs": [
        {
          "indexed": true,
          "internalType": "address",
          "name": "owner",
          "type": "address"
        },
        {
          "indexed": true,
          "internalType": "address",
          "name": "operator",
          "type": "address"
        },
        {
          "indexed": false,
          "internalType": "bool",
          "name": "approved",
          "type": "bool"
        }
      ],
      "name": "ApprovalForAll",
      "type": "event"
    },
    {
      "anonymous": false,
      "inputs": [
        {
          "indexed": true,
          "internalType": "address",
          "name": "from",
          "type": "address"
        },
        {
          "indexed": true,
          "internalType": "address",
          "name": "to",
          "type": "address"
        },
        {
          "indexed": true,
          "internalType": "uint256",
          "name": "tokenId",
          "type": "uint256"
        }
      ],
      "name": "Transfer",
      "type": "event"
    },
    {
      "inputs": [
        {
          "internalType": "address",
          "name": "to",
          "type": "address"
        },
        {
          "internalType": "uint256",
          "name": "tokenId",
          "type": "uint256"
        }
      ],
      "name": "approve",
      "outputs": [],
      "stateMutability": "nonpayable",
      "type": "function"
    },
    {
      "inputs": [
        {
          "internalType": "address",
          "name": "owner",
          "type": "address"
        }
      ],
      "name": "balanceOf",
      "outputs": [
        {
          "internalType": "uint256",
          "name": "",
          "type": "uint256"
        }
      ],
      "stateMutability": "view",
      "type": "function"
    },
    {
      "inputs": [
        {
          "internalType": "uint256",
          "name": "tokenId",
          "type": "uint256"
        }
      ],
      "name": "getApproved",
      "outputs": [
        {
          "internalType": "address",
          "name": "",
          "type": "address"
        }
      ],
      "stateMutability": "view",
      "type": "function"
    },
    {
      "inputs": [
        {
          "internalType": "address",
          "name": "owner",
          "type": "address"
        },
        {
          "internalType": "address",
          "name": "operator",
          "type": "address"
        }
      ],
      "name": "isApprovedForAll",
      "outputs": [
        {
          "internalType": "bool",
          "name": "",
          "type": "bool"
        }
      ],
      "stateMutability": "view",
      "type": "function"
    },
    {
      "inputs": [],
      "name": "makeAnEpicNFT",
      "outputs": [],
      "stateMutability": "nonpayable",
      "type": "function"
    },
    {
      "inputs": [],
      "name": "name",
      "outputs": [
        {
          "internalType": "string",
          "name": "",
          "type": "string"
        }
      ],
      "stateMutability": "view",
      "type": "function"
    },
    {
      "inputs": [
        {
          "internalType": "uint256",
          "name": "tokenId",
          "type": "uint256"
        }
      ],
      "name": "ownerOf",
      "outputs": [
        {
          "internalType": "address",
          "name": "",
          "type": "address"
        }
      ],
      "stateMutability": "view",
      "type": "function"
    },
    {
      "inputs": [
        {
          "internalType": "uint256",
          "name": "tokenId",
          "type": "uint256"
        },
        {
          "internalType": "string",
          "name": "salt",
          "type": "string"
        },
        {
          "internalType": "string[]",
          "name": "words",
          "type": "string[]"
        }
      ],
      "name": "pickRandomWord",
      "outputs": [
        {
          "internalType": "string",
          "name": "",
          "type": "string"
        }
      ],
      "stateMutability": "pure",
      "type": "function"
    },
    {
      "inputs": [
        {
          "internalType": "address",
          "name": "from",
          "type": "address"
        },
        {
          "internalType": "address",
          "name": "to",
          "type": "address"
        },
        {
          "internalType": "uint256",
          "name": "tokenId",
          "type": "uint256"
        }
      ],
      "name": "safeTransferFrom",
      "outputs": [],
      "stateMutability": "nonpayable",
      "type": "function"
    },
    {
      "inputs": [
        {
          "internalType": "address",
          "name": "from",
          "type": "address"
        },
        {
          "internalType": "address",
          "name": "to",
          "type": "address"
        },
        {
          "internalType": "uint256",
          "name": "tokenId",
          "type": "uint256"
        },
        {
          "internalType": "bytes",
          "name": "_data",
          "type": "bytes"
        }
      ],
      "name": "safeTransferFrom",
      "outputs": [],
      "stateMutability": "nonpayable",
      "type": "function"
    },
    {
      "inputs": [
        {
          "internalType": "address",
          "name": "operator",
          "type": "address"
        },
        {
          "internalType": "bool",
          "name": "approved",
          "type": "bool"
        }
      ],
      "name": "setApprovalForAll",
      "outputs": [],
      "stateMutability": "nonpayable",
      "type": "function"
    },
    {
      "inputs": [
        {
          "internalType": "bytes4",
          "name": "interfaceId",
          "type": "bytes4"
        }
      ],
      "name": "supportsInterface",
      "outputs": [
        {
          "internalType": "bool",
          "name": "",
          "type": "bool"
        }
      ],
      "stateMutability": "view",
      "type": "function"
    },
    {
      "inputs": [],
      "name": "symbol",
      "outputs": [
        {
          "internalType": "string",
          "name": "",
          "type": "string"
        }
      ],
      "stateMutability": "view",
      "type": "function"
    },
    {
      "inputs": [
        {
          "internalType": "uint256",
          "name": "tokenId",
          "type": "uint256"
        }
      ],
      "name": "tokenURI",
      "outputs": [
        {
          "internalType": "string",
          "name": "",
          "type": "string"
        }
      ],
      "stateMutability": "view",
      "type": "function"
    },
    {
      "inputs": [
        {
          "internalType": "address",
          "name": "from",
          "type": "address"
        },
        {
          "internalType": "address",
          "name": "to",
          "type": "address"
        },
        {
          "internalType": "uint256",
          "name": "tokenId",
          "type": "uint256"
        }
      ],
      "name": "transferFrom",
      "outputs": [],
      "stateMutability": "nonpayable",
      "type": "function"
    }
  ],
  "bytecode": "0x608060405260405180610160016040528061012f81526020016200425961012f91396008908051906020019062000038929190620005cd565b506040518060a001604052806040518060400160405280600681526020017f41637475616c000000000000000000000000000000000000000000000000000081525081526020016040518060400160405280600481526020017f416369640000000000000000000000000000000000000000000000000000000081525081526020016040518060400160405280600381526020017f496c6c000000000000000000000000000000000000000000000000000000000081525081526020016040518060400160405280600881526020017f4d696c697461727900000000000000000000000000000000000000000000000081525081526020016040518060400160405280600581526020017f536861727000000000000000000000000000000000000000000000000000000081525081525060099060056200017b9291906200065e565b506040518060a001604052806040518060400160405280600581526020017f4e6169766500000000000000000000000000000000000000000000000000000081525081526020016040518060400160405280600981526020017f417061746865746963000000000000000000000000000000000000000000000081525081526020016040518060400160405280600781526020017f506172636865640000000000000000000000000000000000000000000000000081525081526020016040518060400160405280600581526020017f546972656400000000000000000000000000000000000000000000000000000081525081526020016040518060400160405280600481526020017f4875727400000000000000000000000000000000000000000000000000000000815250815250600a906005620002be9291906200065e565b506040518060a001604052806040518060400160405280600781526020017f4f7574636f6d650000000000000000000000000000000000000000000000000081525081526020016040518060400160405280600881526020017f456d706c6f79656500000000000000000000000000000000000000000000000081525081526020016040518060400160405280600781526020017f536f63696574790000000000000000000000000000000000000000000000000081525081526020016040518060400160405280600a81526020017f476f7665726e6d656e740000000000000000000000000000000000000000000081525081526020016040518060400160405280600681526020017f4f66666963650000000000000000000000000000000000000000000000000000815250815250600b906005620004019291906200065e565b503480156200040f57600080fd5b506040518060400160405280600981526020017f5371756172654e465400000000000000000000000000000000000000000000008152506040518060400160405280600681526020017f5351554152450000000000000000000000000000000000000000000000000000815250816000908051906020019062000494929190620005cd565b508060019080519060200190620004ad929190620005cd565b505050620004fb6040518060400160405280601d81526020017f54686973206973206d79204e465420636f6e74726163742e20596569210000008152506200050160201b6200105f1760201c565b6200087f565b620005a18160405160240162000518919062000793565b6040516020818303038152906040527f41304fac000000000000000000000000000000000000000000000000000000007bffffffffffffffffffffffffffffffffffffffffffffffffffffffff19166020820180517bffffffffffffffffffffffffffffffffffffffffffffffffffffffff8381831617835250505050620005a460201b60201c565b50565b60008151905060006a636f6e736f6c652e6c6f679050602083016000808483855afa5050505050565b828054620005db9062000809565b90600052602060002090601f016020900481019282620005ff57600085556200064b565b82601f106200061a57805160ff19168380011785556200064b565b828001600101855582156200064b579182015b828111156200064a5782518255916020019190600101906200062d565b5b5090506200065a9190620006c5565b5090565b828054828255906000526020600020908101928215620006b2579160200282015b82811115620006b1578251829080519060200190620006a0929190620005cd565b50916020019190600101906200067f565b5b509050620006c19190620006e4565b5090565b5b80821115620006e0576000816000905550600101620006c6565b5090565b5b80821115620007085760008181620006fe91906200070c565b50600101620006e5565b5090565b5080546200071a9062000809565b6000825580601f106200072e57506200074f565b601f0160209004906000526020600020908101906200074e9190620006c5565b5b50565b60006200075f82620007b7565b6200076b8185620007c2565b93506200077d818560208601620007d3565b62000788816200086e565b840191505092915050565b60006020820190508181036000830152620007af818462000752565b905092915050565b600081519050919050565b600082825260208201905092915050565b60005b83811015620007f3578082015181840152602081019050620007d6565b8381111562000803576000848401525b50505050565b600060028204905060018216806200082257607f821691505b602082108114156200083957620008386200083f565b5b50919050565b7f4e487b7100000000000000000000000000000000000000000000000000000000600052602260045260246000fd5b6000601f19601f8301169050919050565b6139ca806200088f6000396000f3fe608060405234801561001057600080fd5b50600436106100f55760003560e01c80636352211e11610097578063b88d4fde11610066578063b88d4fde14610296578063c87b56dd146102b2578063de9d132f146102e2578063e985e9c5146102ec576100f5565b80636352211e146101fc57806370a082311461022c57806395d89b411461025c578063a22cb4651461027a576100f5565b8063095ea7b3116100d3578063095ea7b31461017857806323b872dd1461019457806342842e0e146101b05780634c549d2b146101cc576100f5565b806301ffc9a7146100fa57806306fdde031461012a578063081812fc14610148575b600080fd5b610114600480360381019061010f919061256f565b61031c565b6040516101219190612c00565b60405180910390f35b6101326103fe565b60405161013f9190612c1b565b60405180910390f35b610162600480360381019061015d91906125c1565b610490565b60405161016f9190612b99565b60405180910390f35b610192600480360381019061018d9190612533565b610515565b005b6101ae60048036038101906101a9919061242d565b61062d565b005b6101ca60048036038101906101c5919061242d565b61068d565b005b6101e660048036038101906101e191906125ea565b6106ad565b6040516101f39190612c1b565b60405180910390f35b610216600480360381019061021191906125c1565b61073f565b6040516102239190612b99565b60405180910390f35b610246600480360381019061024191906123c8565b6107f1565b6040516102539190612e7b565b60405180910390f35b6102646108a9565b6040516102719190612c1b565b60405180910390f35b610294600480360381019061028f91906124f7565b61093b565b005b6102b060048036038101906102ab919061247c565b610951565b005b6102cc60048036038101906102c791906125c1565b6109b3565b6040516102d99190612c1b565b60405180910390f35b6102ea610b05565b005b610306600480360381019061030191906123f1565b610fcb565b6040516103139190612c00565b60405180910390f35b60007f80ac58cd000000000000000000000000000000000000000000000000000000007bffffffffffffffffffffffffffffffffffffffffffffffffffffffff1916827bffffffffffffffffffffffffffffffffffffffffffffffffffffffff191614806103e757507f5b5e139f000000000000000000000000000000000000000000000000000000007bffffffffffffffffffffffffffffffffffffffffffffffffffffffff1916827bffffffffffffffffffffffffffffffffffffffffffffffffffffffff1916145b806103f757506103f6826110f8565b5b9050919050565b60606000805461040d9061316c565b80601f01602080910402602001604051908101604052809291908181526020018280546104399061316c565b80156104865780601f1061045b57610100808354040283529160200191610486565b820191906000526020600020905b81548152906001019060200180831161046957829003601f168201915b5050505050905090565b600061049b82611162565b6104da576040517f08c379a00000000000000000000000000000000000000000000000000000000081526004016104d190612dfb565b60405180910390fd5b6004600083815260200190815260200160002060009054906101000a900473ffffffffffffffffffffffffffffffffffffffff169050919050565b60006105208261073f565b90508073ffffffffffffffffffffffffffffffffffffffff168373ffffffffffffffffffffffffffffffffffffffff161415610591576040517f08c379a000000000000000000000000000000000000000000000000000000000815260040161058890612e3b565b60405180910390fd5b8073ffffffffffffffffffffffffffffffffffffffff166105b06111ce565b73ffffffffffffffffffffffffffffffffffffffff1614806105df57506105de816105d96111ce565b610fcb565b5b61061e576040517f08c379a000000000000000000000000000000000000000000000000000000000815260040161061590612d3b565b60405180910390fd5b61062883836111d6565b505050565b61063e6106386111ce565b8261128f565b61067d576040517f08c379a000000000000000000000000000000000000000000000000000000000815260040161067490612e5b565b60405180910390fd5b61068883838361136d565b505050565b6106a883838360405180602001604052806000815250610951565b505050565b606060006106e3846106be876115d4565b6040516020016106cf929190612aae565b604051602081830303815290604052611781565b90508251816106f29190613218565b905082818151811061072d577f4e487b7100000000000000000000000000000000000000000000000000000000600052603260045260246000fd5b60200260200101519150509392505050565b6000806002600084815260200190815260200160002060009054906101000a900473ffffffffffffffffffffffffffffffffffffffff169050600073ffffffffffffffffffffffffffffffffffffffff168173ffffffffffffffffffffffffffffffffffffffff1614156107e8576040517f08c379a00000000000000000000000000000000000000000000000000000000081526004016107df90612d7b565b60405180910390fd5b80915050919050565b60008073ffffffffffffffffffffffffffffffffffffffff168273ffffffffffffffffffffffffffffffffffffffff161415610862576040517f08c379a000000000000000000000000000000000000000000000000000000000815260040161085990612d5b565b60405180910390fd5b600360008373ffffffffffffffffffffffffffffffffffffffff1673ffffffffffffffffffffffffffffffffffffffff168152602001908152602001600020549050919050565b6060600180546108b89061316c565b80601f01602080910402602001604051908101604052809291908181526020018280546108e49061316c565b80156109315780601f1061090657610100808354040283529160200191610931565b820191906000526020600020905b81548152906001019060200180831161091457829003601f168201915b5050505050905090565b61094d6109466111ce565b83836117b4565b5050565b61096261095c6111ce565b8361128f565b6109a1576040517f08c379a000000000000000000000000000000000000000000000000000000000815260040161099890612e5b565b60405180910390fd5b6109ad84848484611921565b50505050565b60606109be82611162565b6109fd576040517f08c379a00000000000000000000000000000000000000000000000000000000081526004016109f490612ddb565b60405180910390fd5b6000600660008481526020019081526020016000208054610a1d9061316c565b80601f0160208091040260200160405190810160405280929190818152602001828054610a499061316c565b8015610a965780601f10610a6b57610100808354040283529160200191610a96565b820191906000526020600020905b815481529060010190602001808311610a7957829003601f168201915b505050505090506000610aa761197d565b9050600081511415610abd578192505050610b00565b600082511115610af2578082604051602001610ada929190612aae565b60405160208183030381529060405292505050610b00565b610afb84611994565b925050505b919050565b6000610b116007611a3b565b90506000610c26826040518060400160405280600a81526020017f46495253545f574f5244000000000000000000000000000000000000000000008152506009805480602002602001604051908101604052809291908181526020016000905b82821015610c1d578382906000526020600020018054610b909061316c565b80601f0160208091040260200160405190810160405280929190818152602001828054610bbc9061316c565b8015610c095780601f10610bde57610100808354040283529160200191610c09565b820191906000526020600020905b815481529060010190602001808311610bec57829003601f168201915b505050505081526020019060010190610b71565b505050506106ad565b90506000610d3b836040518060400160405280600b81526020017f5345434f4e445f574f5244000000000000000000000000000000000000000000815250600a805480602002602001604051908101604052809291908181526020016000905b82821015610d32578382906000526020600020018054610ca59061316c565b80601f0160208091040260200160405190810160405280929190818152602001828054610cd19061316c565b8015610d1e5780601f10610cf357610100808354040283529160200191610d1e565b820191906000526020600020905b815481529060010190602001808311610d0157829003601f168201915b505050505081526020019060010190610c86565b505050506106ad565b90506000610e50846040518060400160405280600a81526020017f54484952445f574f524400000000000000000000000000000000000000000000815250600b805480602002602001604051908101604052809291908181526020016000905b82821015610e47578382906000526020600020018054610dba9061316c565b80601f0160208091040260200160405190810160405280929190818152602001828054610de69061316c565b8015610e335780601f10610e0857610100808354040283529160200191610e33565b820191906000526020600020905b815481529060010190602001808311610e1657829003601f168201915b505050505081526020019060010190610d9b565b505050506106ad565b90506000838383604051602001610e6993929190612ad2565b60405160208183030381529060405290506000600882604051602001610e90929190612b03565b60405160208183030381529060405290506000610ed583610eb084611a49565b604051602001610ec1929190612b32565b604051602081830303815290604052611a49565b9050600081604051602001610eea9190612b77565b6040516020818303038152906040529050610f396040518060400160405280601581526020017f0a2d2d2d2d2d2d2d2d2d2d2d2d2d2d2d2d2d2d2d2d000000000000000000000081525061105f565b610f428161105f565b610f806040518060400160405280601581526020017f2d2d2d2d2d2d2d2d2d2d2d2d2d2d2d2d2d2d2d2d0a000000000000000000000081525061105f565b610f8a3389611bd3565b610f948882611bf1565b610fb7604051806060016040528060258152602001613930602591398933611c65565b610fc16007611d04565b5050505050505050565b6000600560008473ffffffffffffffffffffffffffffffffffffffff1673ffffffffffffffffffffffffffffffffffffffff16815260200190815260200160002060008373ffffffffffffffffffffffffffffffffffffffff1673ffffffffffffffffffffffffffffffffffffffff16815260200190815260200160002060009054906101000a900460ff16905092915050565b6110f5816040516024016110739190612c1b565b6040516020818303038152906040527f41304fac000000000000000000000000000000000000000000000000000000007bffffffffffffffffffffffffffffffffffffffffffffffffffffffff19166020820180517bffffffffffffffffffffffffffffffffffffffffffffffffffffffff8381831617835250505050611d1a565b50565b60007f01ffc9a7000000000000000000000000000000000000000000000000000000007bffffffffffffffffffffffffffffffffffffffffffffffffffffffff1916827bffffffffffffffffffffffffffffffffffffffffffffffffffffffff1916149050919050565b60008073ffffffffffffffffffffffffffffffffffffffff166002600084815260200190815260200160002060009054906101000a900473ffffffffffffffffffffffffffffffffffffffff1673ffffffffffffffffffffffffffffffffffffffff1614159050919050565b600033905090565b816004600083815260200190815260200160002060006101000a81548173ffffffffffffffffffffffffffffffffffffffff021916908373ffffffffffffffffffffffffffffffffffffffff160217905550808273ffffffffffffffffffffffffffffffffffffffff166112498361073f565b73ffffffffffffffffffffffffffffffffffffffff167f8c5be1e5ebec7d5bd14f71427d1e84f3dd0314c0f7b2291e5b200ac8c7c3b92560405160405180910390a45050565b600061129a82611162565b6112d9576040517f08c379a00000000000000000000000000000000000000000000000000000000081526004016112d090612d1b565b60405180910390fd5b60006112e48361073f565b90508073ffffffffffffffffffffffffffffffffffffffff168473ffffffffffffffffffffffffffffffffffffffff16148061135357508373ffffffffffffffffffffffffffffffffffffffff1661133b84610490565b73ffffffffffffffffffffffffffffffffffffffff16145b8061136457506113638185610fcb565b5b91505092915050565b8273ffffffffffffffffffffffffffffffffffffffff1661138d8261073f565b73ffffffffffffffffffffffffffffffffffffffff16146113e3576040517f08c379a00000000000000000000000000000000000000000000000000000000081526004016113da90612c9b565b60405180910390fd5b600073ffffffffffffffffffffffffffffffffffffffff168273ffffffffffffffffffffffffffffffffffffffff161415611453576040517f08c379a000000000000000000000000000000000000000000000000000000000815260040161144a90612cdb565b60405180910390fd5b61145e838383611d43565b6114696000826111d6565b6001600360008573ffffffffffffffffffffffffffffffffffffffff1673ffffffffffffffffffffffffffffffffffffffff16815260200190815260200160002060008282546114b99190613082565b925050819055506001600360008473ffffffffffffffffffffffffffffffffffffffff1673ffffffffffffffffffffffffffffffffffffffff16815260200190815260200160002060008282546115109190612fa1565b92505081905550816002600083815260200190815260200160002060006101000a81548173ffffffffffffffffffffffffffffffffffffffff021916908373ffffffffffffffffffffffffffffffffffffffff160217905550808273ffffffffffffffffffffffffffffffffffffffff168473ffffffffffffffffffffffffffffffffffffffff167fddf252ad1be2c89b69c2b068fc378daa952ba7f163c4a11628f55a4df523b3ef60405160405180910390a46115cf838383611d48565b505050565b6060600082141561161c576040518060400160405280600181526020017f3000000000000000000000000000000000000000000000000000000000000000815250905061177c565b600082905060005b6000821461164e578080611637906131cf565b915050600a826116479190612ff7565b9150611624565b60008167ffffffffffffffff811115611690577f4e487b7100000000000000000000000000000000000000000000000000000000600052604160045260246000fd5b6040519080825280601f01601f1916602001820160405280156116c25781602001600182028036833780820191505090505b5090505b60008514611775576001826116db9190613082565b9150600a856116ea9190613218565b60306116f69190612fa1565b60f81b818381518110611732577f4e487b7100000000000000000000000000000000000000000000000000000000600052603260045260246000fd5b60200101907effffffffffffffffffffffffffffffffffffffffffffffffffffffffffffff1916908160001a905350600a8561176e9190612ff7565b94506116c6565b8093505050505b919050565b6000816040516020016117949190612a97565b6040516020818303038152906040528051906020012060001c9050919050565b8173ffffffffffffffffffffffffffffffffffffffff168373ffffffffffffffffffffffffffffffffffffffff161415611823576040517f08c379a000000000000000000000000000000000000000000000000000000000815260040161181a90612cfb565b60405180910390fd5b80600560008573ffffffffffffffffffffffffffffffffffffffff1673ffffffffffffffffffffffffffffffffffffffff16815260200190815260200160002060008473ffffffffffffffffffffffffffffffffffffffff1673ffffffffffffffffffffffffffffffffffffffff16815260200190815260200160002060006101000a81548160ff0219169083151502179055508173ffffffffffffffffffffffffffffffffffffffff168373ffffffffffffffffffffffffffffffffffffffff167f17307eab39ab6107e8899845ad3d59bd9653f200f220920489ca2b5937696c31836040516119149190612c00565b60405180910390a3505050565b61192c84848461136d565b61193884848484611d4d565b611977576040517f08c379a000000000000000000000000000000000000000000000000000000000815260040161196e90612c7b565b60405180910390fd5b50505050565b606060405180602001604052806000815250905090565b606061199f82611162565b6119de576040517f08c379a00000000000000000000000000000000000000000000000000000000081526004016119d590612e1b565b60405180910390fd5b60006119e861197d565b90506000815111611a085760405180602001604052806000815250611a33565b80611a12846115d4565b604051602001611a23929190612aae565b6040516020818303038152906040525b915050919050565b600081600001549050919050565b6060600082511415611a6c57604051806020016040528060008152509050611bce565b60006040518060600160405280604081526020016139556040913990506000600360028551611a9b9190612fa1565b611aa59190612ff7565b6004611ab19190613028565b67ffffffffffffffff811115611af0577f4e487b7100000000000000000000000000000000000000000000000000000000600052604160045260246000fd5b6040519080825280601f01601f191660200182016040528015611b225781602001600182028036833780820191505090505b509050600182016020820185865187015b80821015611b8e576003820191508151603f8160121c168501518453600184019350603f81600c1c168501518453600184019350603f8160061c168501518453600184019350603f8116850151845360018401935050611b33565b5050600386510660018114611baa5760028114611bbd57611bc5565b603d6001830353603d6002830353611bc5565b603d60018303535b50505080925050505b919050565b611bed828260405180602001604052806000815250611ee4565b5050565b611bfa82611162565b611c39576040517f08c379a0000000000000000000000000000000000000000000000000000000008152600401611c3090612d9b565b60405180910390fd5b80600660008481526020019081526020016000209080519060200190611c6092919061213c565b505050565b611cff838383604051602401611c7d93929190612c3d565b6040516020818303038152906040527fe3849f79000000000000000000000000000000000000000000000000000000007bffffffffffffffffffffffffffffffffffffffffffffffffffffffff19166020820180517bffffffffffffffffffffffffffffffffffffffffffffffffffffffff8381831617835250505050611d1a565b505050565b6001816000016000828254019250508190555050565b60008151905060006a636f6e736f6c652e6c6f679050602083016000808483855afa5050505050565b505050565b505050565b6000611d6e8473ffffffffffffffffffffffffffffffffffffffff16611f3f565b15611ed7578373ffffffffffffffffffffffffffffffffffffffff1663150b7a02611d976111ce565b8786866040518563ffffffff1660e01b8152600401611db99493929190612bb4565b602060405180830381600087803b158015611dd357600080fd5b505af1925050508015611e0457506040513d601f19601f82011682018060405250810190611e019190612598565b60015b611e87573d8060008114611e34576040519150601f19603f3d011682016040523d82523d6000602084013e611e39565b606091505b50600081511415611e7f576040517f08c379a0000000000000000000000000000000000000000000000000000000008152600401611e7690612c7b565b60405180910390fd5b805181602001fd5b63150b7a0260e01b7bffffffffffffffffffffffffffffffffffffffffffffffffffffffff1916817bffffffffffffffffffffffffffffffffffffffffffffffffffffffff191614915050611edc565b600190505b949350505050565b611eee8383611f62565b611efb6000848484611d4d565b611f3a576040517f08c379a0000000000000000000000000000000000000000000000000000000008152600401611f3190612c7b565b60405180910390fd5b505050565b6000808273ffffffffffffffffffffffffffffffffffffffff163b119050919050565b600073ffffffffffffffffffffffffffffffffffffffff168273ffffffffffffffffffffffffffffffffffffffff161415611fd2576040517f08c379a0000000000000000000000000000000000000000000000000000000008152600401611fc990612dbb565b60405180910390fd5b611fdb81611162565b1561201b576040517f08c379a000000000000000000000000000000000000000000000000000000000815260040161201290612cbb565b60405180910390fd5b61202760008383611d43565b6001600360008473ffffffffffffffffffffffffffffffffffffffff1673ffffffffffffffffffffffffffffffffffffffff16815260200190815260200160002060008282546120779190612fa1565b92505081905550816002600083815260200190815260200160002060006101000a81548173ffffffffffffffffffffffffffffffffffffffff021916908373ffffffffffffffffffffffffffffffffffffffff160217905550808273ffffffffffffffffffffffffffffffffffffffff16600073ffffffffffffffffffffffffffffffffffffffff167fddf252ad1be2c89b69c2b068fc378daa952ba7f163c4a11628f55a4df523b3ef60405160405180910390a461213860008383611d48565b5050565b8280546121489061316c565b90600052602060002090601f01602090048101928261216a57600085556121b1565b82601f1061218357805160ff19168380011785556121b1565b828001600101855582156121b1579182015b828111156121b0578251825591602001919060010190612195565b5b5090506121be91906121c2565b5090565b5b808211156121db5760008160009055506001016121c3565b5090565b60006121f26121ed84612ebb565b612e96565b9050808382526020820190508285602086028201111561221157600080fd5b60005b8581101561225b57813567ffffffffffffffff81111561223357600080fd5b8086016122408982612389565b85526020850194506020840193505050600181019050612214565b5050509392505050565b600061227861227384612ee7565b612e96565b90508281526020810184848401111561229057600080fd5b61229b84828561312a565b509392505050565b60006122b66122b184612f18565b612e96565b9050828152602081018484840111156122ce57600080fd5b6122d984828561312a565b509392505050565b6000813590506122f0816138d3565b92915050565b600082601f83011261230757600080fd5b81356123178482602086016121df565b91505092915050565b60008135905061232f816138ea565b92915050565b60008135905061234481613901565b92915050565b60008151905061235981613901565b92915050565b600082601f83011261237057600080fd5b8135612380848260208601612265565b91505092915050565b600082601f83011261239a57600080fd5b81356123aa8482602086016122a3565b91505092915050565b6000813590506123c281613918565b92915050565b6000602082840312156123da57600080fd5b60006123e8848285016122e1565b91505092915050565b6000806040838503121561240457600080fd5b6000612412858286016122e1565b9250506020612423858286016122e1565b9150509250929050565b60008060006060848603121561244257600080fd5b6000612450868287016122e1565b9350506020612461868287016122e1565b9250506040612472868287016123b3565b9150509250925092565b6000806000806080858703121561249257600080fd5b60006124a0878288016122e1565b94505060206124b1878288016122e1565b93505060406124c2878288016123b3565b925050606085013567ffffffffffffffff8111156124df57600080fd5b6124eb8782880161235f565b91505092959194509250565b6000806040838503121561250a57600080fd5b6000612518858286016122e1565b925050602061252985828601612320565b9150509250929050565b6000806040838503121561254657600080fd5b6000612554858286016122e1565b9250506020612565858286016123b3565b9150509250929050565b60006020828403121561258157600080fd5b600061258f84828501612335565b91505092915050565b6000602082840312156125aa57600080fd5b60006125b88482850161234a565b91505092915050565b6000602082840312156125d357600080fd5b60006125e1848285016123b3565b91505092915050565b6000806000606084860312156125ff57600080fd5b600061260d868287016123b3565b935050602084013567ffffffffffffffff81111561262a57600080fd5b61263686828701612389565b925050604084013567ffffffffffffffff81111561265357600080fd5b61265f868287016122f6565b9150509250925092565b612672816130b6565b82525050565b612681816130c8565b82525050565b600061269282612f5e565b61269c8185612f74565b93506126ac818560208601613139565b6126b581613305565b840191505092915050565b60006126cb82612f69565b6126d58185612f85565b93506126e5818560208601613139565b6126ee81613305565b840191505092915050565b600061270482612f69565b61270e8185612f96565b935061271e818560208601613139565b80840191505092915050565b600081546127378161316c565b6127418186612f96565b9450600182166000811461275c576001811461276d576127a0565b60ff198316865281860193506127a0565b61277685612f49565b60005b8381101561279857815481890152600182019150602081019050612779565b838801955050505b50505092915050565b60006127b6603283612f85565b91506127c182613316565b604082019050919050565b60006127d9602583612f85565b91506127e482613365565b604082019050919050565b60006127fc601c83612f85565b9150612807826133b4565b602082019050919050565b600061281f602483612f85565b915061282a826133dd565b604082019050919050565b6000612842601983612f85565b915061284d8261342c565b602082019050919050565b6000612865606383612f96565b915061287082613455565b606382019050919050565b6000612888602c83612f85565b9150612893826134f0565b604082019050919050565b60006128ab600d83612f96565b91506128b68261353f565b600d82019050919050565b60006128ce603883612f85565b91506128d982613568565b604082019050919050565b60006128f1602a83612f85565b91506128fc826135b7565b604082019050919050565b6000612914602983612f85565b915061291f82613606565b604082019050919050565b6000612937602e83612f85565b915061294282613655565b604082019050919050565b600061295a600283612f96565b9150612965826136a4565b600282019050919050565b600061297d602083612f85565b9150612988826136cd565b602082019050919050565b60006129a0603183612f85565b91506129ab826136f6565b604082019050919050565b60006129c3602c83612f85565b91506129ce82613745565b604082019050919050565b60006129e6602f83612f85565b91506129f182613794565b604082019050919050565b6000612a09600a83612f96565b9150612a14826137e3565b600a82019050919050565b6000612a2c602183612f85565b9150612a378261380c565b604082019050919050565b6000612a4f601d83612f96565b9150612a5a8261385b565b601d82019050919050565b6000612a72603183612f85565b9150612a7d82613884565b604082019050919050565b612a9181613120565b82525050565b6000612aa382846126f9565b915081905092915050565b6000612aba82856126f9565b9150612ac682846126f9565b91508190509392505050565b6000612ade82866126f9565b9150612aea82856126f9565b9150612af682846126f9565b9150819050949350505050565b6000612b0f828561272a565b9150612b1b82846126f9565b9150612b268261289e565b91508190509392505050565b6000612b3d826129fc565b9150612b4982856126f9565b9150612b5482612858565b9150612b6082846126f9565b9150612b6b8261294d565b91508190509392505050565b6000612b8282612a42565b9150612b8e82846126f9565b915081905092915050565b6000602082019050612bae6000830184612669565b92915050565b6000608082019050612bc96000830187612669565b612bd66020830186612669565b612be36040830185612a88565b8181036060830152612bf58184612687565b905095945050505050565b6000602082019050612c156000830184612678565b92915050565b60006020820190508181036000830152612c3581846126c0565b905092915050565b60006060820190508181036000830152612c5781866126c0565b9050612c666020830185612a88565b612c736040830184612669565b949350505050565b60006020820190508181036000830152612c94816127a9565b9050919050565b60006020820190508181036000830152612cb4816127cc565b9050919050565b60006020820190508181036000830152612cd4816127ef565b9050919050565b60006020820190508181036000830152612cf481612812565b9050919050565b60006020820190508181036000830152612d1481612835565b9050919050565b60006020820190508181036000830152612d348161287b565b9050919050565b60006020820190508181036000830152612d54816128c1565b9050919050565b60006020820190508181036000830152612d74816128e4565b9050919050565b60006020820190508181036000830152612d9481612907565b9050919050565b60006020820190508181036000830152612db48161292a565b9050919050565b60006020820190508181036000830152612dd481612970565b9050919050565b60006020820190508181036000830152612df481612993565b9050919050565b60006020820190508181036000830152612e14816129b6565b9050919050565b60006020820190508181036000830152612e34816129d9565b9050919050565b60006020820190508181036000830152612e5481612a1f565b9050919050565b60006020820190508181036000830152612e7481612a65565b9050919050565b6000602082019050612e906000830184612a88565b92915050565b6000612ea0612eb1565b9050612eac828261319e565b919050565b6000604051905090565b600067ffffffffffffffff821115612ed657612ed56132d6565b5b602082029050602081019050919050565b600067ffffffffffffffff821115612f0257612f016132d6565b5b612f0b82613305565b9050602081019050919050565b600067ffffffffffffffff821115612f3357612f326132d6565b5b612f3c82613305565b9050602081019050919050565b60008190508160005260206000209050919050565b600081519050919050565b600081519050919050565b600082825260208201905092915050565b600082825260208201905092915050565b600081905092915050565b6000612fac82613120565b9150612fb783613120565b9250827fffffffffffffffffffffffffffffffffffffffffffffffffffffffffffffffff03821115612fec57612feb613249565b5b828201905092915050565b600061300282613120565b915061300d83613120565b92508261301d5761301c613278565b5b828204905092915050565b600061303382613120565b915061303e83613120565b9250817fffffffffffffffffffffffffffffffffffffffffffffffffffffffffffffffff048311821515161561307757613076613249565b5b828202905092915050565b600061308d82613120565b915061309883613120565b9250828210156130ab576130aa613249565b5b828203905092915050565b60006130c182613100565b9050919050565b60008115159050919050565b60007fffffffff0000000000000000000000000000000000000000000000000000000082169050919050565b600073ffffffffffffffffffffffffffffffffffffffff82169050919050565b6000819050919050565b82818337600083830152505050565b60005b8381101561315757808201518184015260208101905061313c565b83811115613166576000848401525b50505050565b6000600282049050600182168061318457607f821691505b60208210811415613198576131976132a7565b5b50919050565b6131a782613305565b810181811067ffffffffffffffff821117156131c6576131c56132d6565b5b80604052505050565b60006131da82613120565b91507fffffffffffffffffffffffffffffffffffffffffffffffffffffffffffffffff82141561320d5761320c613249565b5b600182019050919050565b600061322382613120565b915061322e83613120565b92508261323e5761323d613278565b5b828206905092915050565b7f4e487b7100000000000000000000000000000000000000000000000000000000600052601160045260246000fd5b7f4e487b7100000000000000000000000000000000000000000000000000000000600052601260045260246000fd5b7f4e487b7100000000000000000000000000000000000000000000000000000000600052602260045260246000fd5b7f4e487b7100000000000000000000000000000000000000000000000000000000600052604160045260246000fd5b6000601f19601f8301169050919050565b7f4552433732313a207472616e7366657220746f206e6f6e20455243373231526560008201527f63656976657220696d706c656d656e7465720000000000000000000000000000602082015250565b7f4552433732313a207472616e736665722066726f6d20696e636f72726563742060008201527f6f776e6572000000000000000000000000000000000000000000000000000000602082015250565b7f4552433732313a20746f6b656e20616c7265616479206d696e74656400000000600082015250565b7f4552433732313a207472616e7366657220746f20746865207a65726f2061646460008201527f7265737300000000000000000000000000000000000000000000000000000000602082015250565b7f4552433732313a20617070726f766520746f2063616c6c657200000000000000600082015250565b7f222c20226465736372697074696f6e223a20224120686967686c79206163636c60008201527f61696d656420636f6c6c656374696f6e206f6620737175617265732e222c202260208201527f696d616765223a2022646174613a696d6167652f7376672b786d6c3b6261736560408201527f36342c0000000000000000000000000000000000000000000000000000000000606082015250565b7f4552433732313a206f70657261746f7220717565727920666f72206e6f6e657860008201527f697374656e7420746f6b656e0000000000000000000000000000000000000000602082015250565b7f3c2f746578743e3c2f7376673e00000000000000000000000000000000000000600082015250565b7f4552433732313a20617070726f76652063616c6c6572206973206e6f74206f7760008201527f6e6572206e6f7220617070726f76656420666f7220616c6c0000000000000000602082015250565b7f4552433732313a2062616c616e636520717565727920666f7220746865207a6560008201527f726f206164647265737300000000000000000000000000000000000000000000602082015250565b7f4552433732313a206f776e657220717565727920666f72206e6f6e657869737460008201527f656e7420746f6b656e0000000000000000000000000000000000000000000000602082015250565b7f45524337323155524953746f726167653a2055524920736574206f66206e6f6e60008201527f6578697374656e7420746f6b656e000000000000000000000000000000000000602082015250565b7f227d000000000000000000000000000000000000000000000000000000000000600082015250565b7f4552433732313a206d696e7420746f20746865207a65726f2061646472657373600082015250565b7f45524337323155524953746f726167653a2055524920717565727920666f722060008201527f6e6f6e6578697374656e7420746f6b656e000000000000000000000000000000602082015250565b7f4552433732313a20617070726f76656420717565727920666f72206e6f6e657860008201527f697374656e7420746f6b656e0000000000000000000000000000000000000000602082015250565b7f4552433732314d657461646174613a2055524920717565727920666f72206e6f60008201527f6e6578697374656e7420746f6b656e0000000000000000000000000000000000602082015250565b7f7b226e616d65223a202200000000000000000000000000000000000000000000600082015250565b7f4552433732313a20617070726f76616c20746f2063757272656e74206f776e6560008201527f7200000000000000000000000000000000000000000000000000000000000000602082015250565b7f646174613a6170706c69636174696f6e2f6a736f6e3b6261736536342c000000600082015250565b7f4552433732313a207472616e736665722063616c6c6572206973206e6f74206f60008201527f776e6572206e6f7220617070726f766564000000000000000000000000000000602082015250565b6138dc816130b6565b81146138e757600080fd5b50565b6138f3816130c8565b81146138fe57600080fd5b50565b61390a816130d4565b811461391557600080fd5b50565b61392181613120565b811461392c57600080fd5b5056fe416e204e465420772f20494420257320686173206265656e206d696e74656420746f2025734142434445464748494a4b4c4d4e4f505152535455565758595a6162636465666768696a6b6c6d6e6f707172737475767778797a303132333435363738392b2fa2646970667358221220c470eb8aabf5c2c2ac224a5ffd40092bf6deb54375069578dc7bc17b3b821bd564736f6c634300080400333c73766720786d6c6e733d27687474703a2f2f7777772e77332e6f72672f323030302f73766727207072657365727665417370656374526174696f3d27784d696e594d696e206d656574272076696577426f783d273020302033353020333530273e3c7374796c653e2e62617365207b2066696c6c3a2077686974653b20666f6e742d66616d696c793a2073657269663b20666f6e742d73697a653a20323470783b207d3c2f7374796c653e3c726563742077696474683d273130302527206865696768743d2731303025272066696c6c3d27626c61636b27202f3e3c7465787420783d273530252720793d273530252720636c6173733d27626173652720646f6d696e616e742d626173656c696e653d276d6964646c652720746578742d616e63686f723d276d6964646c65273e",
  "linkReferences": {},
  "deployedLinkReferences": {}
}